:100000000C9430070C9461070C9461070C94610701
:100010000C9461070C9461070C9461070C946107C0
:100020000C9461070C9461070C9461070C946107B0
:100030000C9461070C9461070C9461070C946107A0
:100040000C9461070C9461070C9461070C94610790
:100050000C9461070C9461070C9461070C94FA42AC
:100060000C9461070C94C52D0C94ED2C0C94610735
:100070000C9461070C9461070C9461070C94610760
:100080000C9461070C9461070C9461070C94610750
:100090000C94922D0C94AE2C0C9461070C94610777
:1000A0000C9461070C9461070C9461070C94610730
:1000B0000C9461070C9461070C9461070C94610720
:1000C0000C9461070C9461070C9461070C945F2DEC
:1000D0000C946F2C0C9461070C942C2D0C94302CE8
:1000E0000C946107DB2EDE2ED12ED52E152FE22E9D
:1000F000E62EEC2EF02EF42EFA2EFE2E022F152FC9
:10010000082F0C2F102F0C94B21D0C94D9270C948F
:100110008A290C94A72A0C94A9290C94E3320C94F4
:10012000DE2E0C94381C0C94D12E0C94FA2E0C94C8
:100130009C2A0C94E62E0C94A2290C94022F0C9469
:10014000E22E0C945A2B0C94102F0C947F310C94AB
:10015000EC2E0C94E32A0C94FE2E0C94152F0C9488
:100160000C2F0C947A290C94C3570C94DB2E0C940E
:10017000C72A0C94B1190C94175E0C9496290C9410
:10018000982F0C94C4190C94F42E0C94D52E0C9426
:10019000F02E0C94082F0C9479290C940D2B0C94B0
:1001A0003F3D0C9438280C945A2A11007F96290060
:1001B00001007F9628003A0155C0021010C101418C
:1001C000C50400228040360168B00100B102B011C0
:1001D000B40102B60302023BB701C63A0155F70467
:1001E000A9512C82C0020D0DC1024300C20100C5FD
:1001F0000400480048B40100B60302023BE00F0FC0
:10020000211C0B0E08499838091103141000E10F46
:100210000F2F2B0C0E06477637071104231E00B054
:100220000100B30402000000B40100D0030742182B
:10023000D103000710D2020102D3020102D402014D
:1002400002C005123B000211C103101088C5010352
:10025000C60102C80C003236450616377577540CB5
:1002600000CC0100F603010100CF03008130ED0452
:1002700064031281E803851078CB05392C00340221
:10028000F70120EA020000B00100B102001BB40136
:1002900000C00121C10111C5023F3CC701B53601B3
:1002A00048F20100260101E00F0F26240B0E09542D
:1002B000A8460C17090F0700E10F00191B041007CF
:1002C0002A473903060630380F360100B80101C04D
:1002D000010EB00100C10410100202C0060035007A
:1002E000000102C50104D2020104CA0100EA018032
:1002F000B903FF83577F967F96B60125C0065050FD
:10030000013C1E08B4070240002A2A0D787F01F242
:100310000B1616030808080810041616FD03110230
:1003200035B2050C0C003333B70135BB012BC001CE
:1003300004C20201FFC30111C40120C6010FD00293
:10034000A4A1E00ED000050E150D37434709151284
:100350001619E10ED000050D0C062D44400E1C1898
:1003600016193A01557F0AB00103E2013FC001228C
:10037000E20100B00100C0010AB00100000000006D
:10038000000000000000000000000000FFFF0F0060
:1003900000040062080008080003000C01030B5A67
:1003A00002030609030317100403002305030017C3
:1003B000060309630703090C08030C100903322222
:1003C00010001600110001011200000013000100CE
:1003D00000013003010137020301000D80020061BA
:1003E0000201B0C1FFFF3200010000010200000164
:1003F00003003010090001000C0000009000008094
:100400000F000000100200001102EF0012020000B5
:1004100013028F01000500000105000002055F00C6
:100420000104010004040000FFFF32000700000186
:10043000FFFF320000020000010200000000000087
:10044000000000000000000000000100A400010006
:10045000FFFF0A00600000270800080830001402AF
:1004600031001537320004063300160E3400112215
:1004700035000015360007853700071438000314CF
:100480003900200090001500100010041100370200
:10049000290046002A0046000700000012008901DA
:1004A00013000011FFFF96001200B90101000001C6
:1004B0000200000203003010090001000A000000E1
:1004C0000D0000000E003000610001006A00000015
:1004D000800000008100000082005F0092000001A7
:1004E00093000107FFFF500007000001E500F078CE
:1004F00001000001020000020300301004000000AF
:100500000500000008000702090000000A000000C2
:100510000C0000000D0000000F00000010000000A3
:100520001100070012000000130000000700010086
:10053000FFFFC8001000901611002702FFFF3200D5
:1005400012000D00FFFF32001300001229000A0004
:100550002B000D00FFFF32002000000021000000F2
:1005600030000000310004043200030035000504AF
:10057000360008083700070438000303390007076E
:100580003C0004053D0008086000002761000100F0
:100590006A0000008000000081000000820000006E
:1005A000830000008400000085000000900010001F
:1005B0009200000007003301E50000800000010008
:1005C00001000001020000070300301004000000D9
:1005D00008000202090000000A0000000C000000F0
:1005E0000D0000000F0000001000000011000700C7
:1005F0001200000013000000FFFF32001000B017CF
:1006000011000700FFFF0A0012003A01FFFF0A0075
:100610001300001A29000C00FFFF0A003000000040
:1006200031000505320004003500060036000707DA
:100630003700050138000200390007073C000407B5
:100640003D000708600000A7610001006A0000008B
:100650002100000020000000800000008100000058
:10066000820000008300000084000000850000007C
:10067000900010009200000093000300950010010C
:10068000970000009800000007007301FFFF320090
:10069000FF000100F300080000000100010000015C
:1006A00002000007030030100800020309000000E8
:1006B00010000000110007001200000013000000ED
:1006C000FFFF32001000B014FFFF0A001100070006
:1006D000FFFF0A0012008E001300000C2900150015
:1006E000FFFF0A0030000000310007013200000067
:1006F000350003023600020437000000380007020C
:10070000390000003C0003023D000304600000A724
:10071000610001009000290007003301FFFF320053
:10072000150030009A00100011002000100028343D
:100730001200020013003810FFFF28001200120000
:10074000FFFF28001000203413004530FFFF460053
:1007500030000000310002043200070333000403BC
:100760003400040035000104360007073700050394
:1007700038001006390010060100000102000003D5
:1007800003003010080008080A0008006000002775
:100790006100010090003E01920000019300000101
:1007A000A0000030A3001000070001000700210096
:1007B00007002300070033000700330111001A006F
:1007C0001200213113006C0014004942100000088F
:1007D000FFFF0A0011001A01FFFF0A0011001A03AF
:1007E000FFFF0A0011001A07FFFF0A0011001A0F8D
:1007F000FFFF0A0011003A0FFFFF1E000100280151
:10080000020000010300301007001210080003036B
:100810000B0000110C0000000F0001181500200053
:10082000500001015100030652000804530000006B
:100830005400050655000604560003035700030341
:10084000580010005900001007001200FFFF280098
:10085000070013000700170000000000003E5B4F78
:100860005B3E3E6B4F6B3E1C3E7C3E1C183C7E3C10
:10087000181C577D571C1C5E7F5E1C00183C18001E
:10088000FFE7C3E7FF0018241800FFE7DBE7FF30AE
:10089000483A060E2629792926407F050507407F1C
:1008A00005253F5A3CE73C5A7F3E1C1C08081C1C8F
:1008B0003E7F14227F22145F5F005F5F06097F0185
:1008C0007F006689956A606060606094A2FFA29470
:1008D00008047E040810207E201008082A1C08083E
:1008E0001C2A08081E101010100C1E0C1E0C30388C
:1008F0003E3830060E3E0E06000000000000005F8D
:1009000000000007000700147F147F14242A7F2AA8
:10091000122313086462364956205000080703006A
:10092000001C2241000041221C002A1C7F1C2A08B6
:10093000083E080800807030000808080808000019
:1009400060600020100804023E5149453E00427F8D
:10095000400072494949462141494D331814127FDC
:100960001027454545393C4A49493141211109077C
:100970003649494936464949291E000014000000FD
:1009800040340000000814224114141414140041CF
:1009900022140802015909063E415D594E7C12118C
:1009A000127C7F494949363E414141227F414141C4
:1009B0003E7F494949417F090909013E414151733F
:1009C0007F0808087F00417F41002040413F017FB0
:1009D000081422417F404040407F021C027F7F0478
:1009E00008107F3E4141413E7F090909063E4151C1
:1009F000215E7F09192946264949493203017F01B1
:100A0000033F4040403F1F2040201F3F4038403FB1
:100A1000631408146303047804036159494D4300C7
:100A20007F4141410204081020004141417F0402FE
:100A30000102044040404040000307080020545495
:100A400078407F2844443838444444283844442873
:100A50007F385454541800087E090218A4A49C78C6
:100A60007F0804047800447D40002040403D007F22
:100A70001028440000417F40007C047804787C0802
:100A80000404783844444438FC18242418182424D6
:100A900018FC7C08040408485454542404043F44BB
:100AA000243C4040207C1C2040201C3C4030403CEA
:100AB00044281028444C9090907C4464544C44004A
:100AC00008364100000077000000413608000201AE
:100AD0000204023C2623263C1EA1A161123A40409A
:100AE000207A385454555921555579412254547817
:100AF00042215554784020545579400C1E527212B0
:100B00003955555559395454545939555454580038
:100B100000457C410002457D420001457C407D123C
:100B200011127DF0282528F07C545545002054549E
:100B30007C547C0A097F4932494949323A44444449
:100B40003A324A4848303A4141217A3A4240207884
:100B5000009DA0A07D3D4242423D3D4040403D3C85
:100B600024FF2424487E4943662B2FFC2F2BFF09AA
:100B700029F620C0887E090320545479410000449E
:100B80007D413048484A32384040227A007A0A0A89
:100B9000727D0D19317D2629292F282629292926FC
:100BA00030484D4020380808080808080808382F41
:100BB00010C8ACBA2F102834FA00007B00000814CB
:100BC0002A142222142A14085500550055AA55AAA1
:100BD00055AAFF55FF55FF000000FF00101010FF41
:100BE00000141414FF001010FF00FF1010F010F09C
:100BF000141414FC001414F700FF0000FF00FF148D
:100C000014F404FC141417101F10101F101F1414D8
:100C1000141F00101010F0000000001F1010101022
:100C20001F10101010F010000000FF101010101016
:100C300010101010FF10000000FF140000FF00FF54
:100C400000001F10170000FC04F4141417101714F0
:100C500014F404F40000FF00F71414141414141412
:100C6000F700F7141414171410101F101F14141485
:100C7000F4141010F010F000001F101F0000001FEF
:100C800014000000FC140000F010F01010FF10FF22
:100C9000141414FF141010101F00000000F010FFB7
:100CA000FFFFFFFFF0F0F0F0F0FFFFFF000000009B
:100CB00000FFFF0F0F0F0F0F3844443844FC4A4A1F
:100CC0004A347E02020606027E027E0263554941D4
:100CD000633844443C04407E201E2006027E02020B
:100CE00099A5E7A5991C2A492A1C4C7201724C301F
:100CF0004A4D4D303048784830BC625A463D3E49F6
:100D00004949007E0101017E2A2A2A2A2A44445F99
:100D1000444440514A444040444A51400000FF018D
:100D200003E080FF000008086B6B0836123624369B
:100D3000060F090F06000018180000001010003000
:100D400040FF0101001F01011E00191D1712003C88
:100D50003C3C3C0000000000000021002400270073
:100D60002A002D00300033000101000004010701BA
:100D70000A010000090A02080B0C0D070603040112
:100D80000000000000000000000000000000000063
:100D90000000000000000000000000000000111032
:100DA0000F00000000000000000000000000000034
:100DB00000000000000000000102102020080810C0
:100DC00020401020408002010201080402010102BB
:100DD0000408102040808040201008040201800494
:100DE00002018040201008040201080402010102EF
:100DF00004081020408001020408102040800000F8
:100E00002200250028002B002E00310034000201B2
:100E10000000050108010B01050505050705080887
:100E20000808020202020A0A080804040404010174
:100E30000101010101010303030303030303040789
:100E400007070C0C0C0C0C0C0C0C02020202060620
:100E50000606060606060B0B0B0B0B0B0B0BC357FC
:100E600011241FBECFEFD1E2DEBFCDBF00E00CBF2B
:100E700016E0A0E0B2E0EEEFFDEB00E00BBF02C039
:100E800007900D92AC37B107D9F72EE0ACE7B6E08A
:100E900001C01D92A837B207E1F717E0C0E3D7E021
:100EA00000E006C021970109802FFE010E94015E2B
:100EB000CF32D10780E00807A9F70E9444430C9481
:100EC000495B0C940000CF93DF93EC0141E050E0CC
:100ED000BC0185E50E947E3641E050E0BE0182E51E
:100EE0000E947E3643E050E0BE0185E50E947E36DA
:100EF00043E050E0BE0182E50E947E3643E050E0D0
:100F0000BE0185E50E947E3643E050E0BE0186E4E6
:100F10000E947E3641E050E0BE0185E50E947E36AB
:100F200041E050E0BE0186E4DF91CF910C947E3623
:100F3000CF93DF93EC0143E050E0BC0185E50E94D4
:100F40007E3643E050E0BE018CE40E947E3641E0F4
:100F500050E0BE0185E50E947E3641E050E0BE01D2
:100F60008CE40E947E3641E050E0BE0185E50E949F
:100F70007E3641E050E0BE0186E40E947E3643E0CA
:100F800050E0BE0185E50E947E3643E050E0BE01A0
:100F900086E4DF91CF910C947E36FC019C01285BA6
:100FA0003F4F80E090E064817581408151816417FA
:100FB000750709F401967296E217F307A1F70895F1
:100FC000CF92DF92FF920F931F93CF93DF93EC01A9
:100FD000FC01E05BFF4FC080D18004E010E0F12C09
:100FE0008CA19DA1C816D90639F488819981C816AB
:100FF000D90611F4FF24F39441E050E0BE0185E5E9
:101000000E947E360150110959F78F2DDF91CF9143
:101010001F910F91FF90DF90CF900895CF92DF92B4
:10102000FF920F931F93CF93DF93EC01FC01E05BE2
:10103000FF4FC080D18004E010E0F12C8AAD9BAD61
:10104000C816D90639F488A599A5C816D90611F489
:10105000FF24F39441E050E0BE0185E50E947E3616
:101060000150110959F78F2DDF91CF911F910F91E9
:10107000FF90DF90CF900895FC01E05BFF4F40812F
:101080005181389771E060E0208131812417350764
:1010900009F070E0272F362FFC01E45BFF4F6081E1
:1010A00071814617570711F42F5F3F4FFC01E85A33
:1010B000FF4F608171814617570711F42F5F3F4F33
:1010C000FC01EC5AFF4F808191814817590711F4B8
:1010D0002F5F3F4FC9010895CF93DF93EC0141E0AB
:1010E00050E0BC0182E50E947E3641E050E0BE0146
:1010F00085E50E947E3643E050E0BE0182E50E9415
:101100007E3641E050E0BE0185E50E947E3641E03A
:1011100050E0BE0182E50E947E3642E050E0BE0112
:1011200085E50E947E3643E050E0BE0182E5DF9116
:10113000CF910C947E36CF93DF93EC0141E050E0E9
:10114000BC0186E40E947E3641E050E0BE0182E5AB
:101150000E947E3641E050E0BE0185E50E947E3669
:1011600043E050E0BE0182E50E947E3643E050E05D
:10117000BE0185E50E947E3643E050E0BE0186E474
:10118000DF91CF910C947E36FC01E05BFF4F4081F4
:101190005181369620813181DC01AE5ABF4F421712
:1011A0005307A1F471E060E0389720813181241762
:1011B000350709F070E0272F362F6D917C9111973C
:1011C0004617570729F42F5F3F4F02C020E030E059
:1011D0006D917C91FC01E65BFF4F4617570739F490
:1011E000608171814617570711F42F5F3F4F60816F
:1011F00071814617570751F4FC01E25BFF4F808174
:1012000091814817590711F42F5F3F4FC901089585
:10121000CF93DF93EC01FC01E25AFF4F8081918173
:101220004AA15BA1288939898F3F6FEF960779F42E
:10123000688579854617570751F46A8D7B8D261787
:10124000370729F46AE070E08FEF9FEF1DC02F3F52
:101250006FEF360751F46A8D7B8D4617570729F4D7
:10126000688579858617970769F04F3F5F4FE1F4EE
:101270004885598524173507B9F42A8D3B8D821787
:10128000930791F46AE070E00E94E7206AE070E062
:101290008AA19BA10E94E7206AE070E08889998971
:1012A0000E94E72081E001C080E0DF91CF910895A6
:1012B000CF93DF93EC0143E050E0BC0182E50E9454
:1012C0007E3641E050E0BE0184E40E947E3641E07B
:1012D00050E0BE0182E50E947E3643E050E0BE0150
:1012E00084E4DF91CF910C947E36FC01828193815E
:1012F000019639F0DF01A65BBF4F8D919C9101965D
:1013000011F584899589019639F0DF01AE5ABF4FF6
:101310008D919C910196B9F486A197A1019639F01F
:10132000DF01AA5ABF4F8D919C91019661F480AD67
:1013300091AD019651F0E25BFF4F81E02081318158
:101340002F3F3F4F19F080E0089581E008956F929C
:101350007F928F929F92AF92BF92CF92DF92EF9245
:10136000FF920F931F93CF93DF933B014A01E90153
:101370005801C12CD12C780189019501AB01B40130
:10138000C3010E946A34740183019401AE01B50166
:10139000CE010E946A34DF91CF911F910F91FF908F
:1013A000EF90DF90CF90BF90AF909F908F907F9005
:1013B0006F9008954F925F926F927F928F929F925B
:1013C000AF92BF92CF92DF92EF92FF920F931F9353
:1013D000CF93DF939C012C583F4F49014115510594
:1013E00009F067C05B01AA0CBB1C8A0D9B1D28E19C
:1013F000269F3001279F700C1124E301CC5AD84F4F
:10140000EE80FF804C815D815C0138E4A30EB11C4D
:10141000D501CD90DC909701225331096A817B81FF
:101420008A01888199810E946A342E813F818C8152
:101430009D81F501C080D1807901F9E1EF1AF108B1
:10144000D4010D911C91080F191FB9016253710944
:10145000AC010E946A34F301ED5BF74F88819981FA
:10146000918380838A819B81938382838C819D81F8
:10147000958384832E813F81A9014253510957836B
:10148000468391878087338722879587848757870C
:101490004687918B808B338B228BD4014D915C914D
:1014A000840F951F958B848B29513109378B268B9F
:1014B00077C09A0121503109E8E1E69FE001E79FFA
:1014C000D00D1124A8E4A29FF001A39FF00D1124D8
:1014D000EC0FFD1FED5BF74F44805580A49F9001FA
:1014E000A59F300D1124C20FD31FCD5BD74F59825A
:1014F0004882668077807B826A82D401AD90BC90FE
:10150000A481B581AA0DBB1DBD83AC838680978065
:101510009401295131093F832E83048115810A0DDD
:101520001B1D19870887E680F780E9E1EE0EF11CA4
:10153000FB86EA86BD87AC873F872E87B98BA88B51
:10154000FB8AEA8AAA0EBB1EBD8AAC8A9F8A8E8A53
:101550005A01AA0CBB1CA40EB51EA60EB71EAA0CDF
:10156000BB1C8A0D9B1D5C01F8E4AF0EB11CF5019C
:10157000C080D180AD01B301C2010E946A34D5019F
:10158000CD90DC90EE88FF880C891D892A893B89E3
:10159000488959896E857F858C859D850E946A342E
:1015A000DF91CF911F910F91FF90EF90DF90CF903F
:1015B000BF90AF909F908F907F906F905F904F9073
:1015C00008954F925F926F927F928F929F92AF9207
:1015D000BF92CF92DF92EF92FF920F931F93CF9320
:1015E000DF935A01AA0CBB1CA40EB51EA60EB71E93
:1015F000AA0CBB1CA80EB91E3C0120E7620E711C90
:101600004C01E8E78E0E911CF30120813181F40139
:1016100080819181820F931F880F991FF501C288E5
:10162000D38828E1269F2001279F500C112468E4CD
:10163000649F9001659F300D1124420E531EE201FC
:10164000CC5AD84FEA84FB84288539858C01021B4B
:10165000130B2E813F814C815D81BC01641B750B96
:10166000AB016A817B81E881F9818E1B9F0B0E940F
:101670006A34F30120813181F40180819181820FEC
:10168000931F880F991FF501C288D388EE88FF88C1
:101690002C893D898C01021B130B2A893B894889BF
:1016A0005989BC01641B750BAB016E857F85EC8588
:1016B000FD858E1B9F0B0E946A34F30120813181CE
:1016C000F40180819181820F931F880F991FF2018D
:1016D000E458F94F23E030E048815981BC01641B94
:1016E000750B71836083758764874E855F85578727
:1016F00046874A815B815383428321503109249676
:1017000034962115310541F7DF91CF911F910F914B
:10171000FF90EF90DF90CF90BF90AF909F908F9011
:101720007F906F905F904F9008952F923F924F92CD
:101730005F926F927F928F929F92AF92BF92CF9261
:10174000DF92EF92FF920F931F93CF93DF93CDB76A
:10175000DEB760970FB6F894DEBF0FBECDBF8C0129
:101760007E876D874A019C012E583F4F3A8329831B
:10177000D901ED90FC90FC01E658FF4FFC83EB8310
:101780008081918123E0222E312CB1010E94ED5DF8
:1017900094012F5F3F4F3A872987629FD001639F53
:1017A000B00D729FB00D112489E14D855E85849F37
:1017B0003001859F700C1124C80180599F4F9E8372
:1017C0008D83FC014081518198012C583F4F38870F
:1017D0002F83F9010190F081E02DF88BEF872D85A3
:1017E0003E852E9F50012F9FB00C3E9FB00C1124C0
:1017F000CD01861B970BBC016E0D7F1D230199E166
:10180000490E511CCA018A0D9B1D9401220F331FE2
:10181000280D391DED85FE852E0F3F1F220F331F2A
:10182000F801E20FF31FFC87EB87C080D180EA0E3E
:10183000FB1EE60CF71C9B01240D351DAF85B889F6
:101840004A0F5B1F4A0D5B1D660D771D8C010E94C0
:101850006A34E981FA81A080B180AB81BC818D912D
:101860009C91B1010E94ED5DE985FA85E69FD0016A
:10187000E79FB00DF69FB00D112495012A0F3B1F75
:10188000ED81FE8100811181EF81F8858081918158
:10189000ED85FE85E89FA001E99F500DF89F500D52
:1018A0001124800F911F840F951FEB85FC85C0804C
:1018B000D1807201E20EF31E260D371D400F511F1D
:1018C000A61BB70BAA0DBB1DBD01640D751D8C01B8
:1018D0000E946A34AD81BE81CD90DC90EF81F885A5
:1018E000208131814D855E85429F7001439FF00CC0
:1018F000529FF00C112486010E0D1F1D88E1849F5C
:10190000F001859FF00D112448E4489DC001499DD8
:10191000900D1124E80FF91FEC5AF84F1183008342
:10192000A981BA810D90BC91A02DBA83A983AB8106
:10193000BC818D919C91B1010E94ED5D869EA001BC
:10194000879E500D969E500D112489819A81840F97
:10195000951FD301A80FB91FB383A2832C0D3D1D82
:10196000E20EF31EF582E482840D951D9783868333
:1019700011870087640F751F29813A81260F371F51
:10198000620E731E73866286F586E4869787868765
:10199000118B008B738A628AF58AE48A240D351DC7
:1019A000378B268B60960FB6F894DEBF0FBECDBF87
:1019B000DF91CF911F910F91FF90EF90DF90CF902B
:1019C000BF90AF909F908F907F906F905F904F905F
:1019D0003F902F9008956F927F928F929F92AF9237
:1019E000BF92CF92DF92EF92FF920F931F93CF930C
:1019F000DF93EC018CE7E82E86E0F82EF70126A9AC
:101A000037A944A955A962817381808191810E947F
:101A10004236F701208131819EE1C92E97E0D92E0F
:101A2000F60100811181F70142815381B9016350B0
:101A30007109CE010E94A7092091520730915307E6
:101A4000F70144A955A9F60160817181F7018081F0
:101A500091810E9442362091C2063091C3060CE467
:101A600017E0F80140815181F70162897389808113
:101A700091810E94423620910A0730910B07F801AC
:101A8000408151816091D6067091D706F70180811F
:101A900091810E9442364E01F2E78F0E911CF401B3
:101AA000408151816E01F0E7CF0ED11C5E0184E7C9
:101AB000A80EB11CF60160817181F50180819181D0
:101AC000680F791F7E01F8E7EF0EF11CF7018081A6
:101AD0009181680F791F3E01FAE76F0E711CF301C7
:101AE00000811181040F151F0E5C1F4F9B012D5F9C
:101AF0003F4F4E5C5F4FCE010E94A709F401408129
:101B00005181F50160817181660F771FF601808137
:101B10009181680F791FF70180819181680F791F8A
:101B2000F30100811181040F151F075E1F4F9B01F8
:101B30002D5F3F4F475E5F4FCE010E94A709DF91A7
:101B4000CF911F910F91FF90EF90DF90CF90BF90BA
:101B5000AF909F908F907F906F9008958F929F92FB
:101B6000AF92BF92CF92DF92EF92FF920F931F93AB
:101B7000CF93DF93EC0184E5E82E87E0F82E009107
:101B80002A0810912B0898E2C92E98E0D92ED60188
:101B90002D913C91F70146A957A964A975A96350F5
:101BA0007109CE010E94A70920919A0730919B07E5
:101BB0004091200850912108D70152966D917C9157
:101BC00053978D919C910E9442362091E20730916B
:101BD000E307F601408151816091AE077091AF0734
:101BE000D7018D919C910E9442364E01B2E78B0E37
:101BF000911CF40140815181475E5F4F6E01F0E717
:101C0000CF0ED11CD6018D919C915E01B4E7AB0E35
:101C1000B11CD501ED91FC917E01BAE7EB0EF11CF0
:101C2000D7010D911C91040F151F9C012E0F3F1F12
:101C3000BC01635071096E0F7F1FCE010E94A7097E
:101C4000F401408151814E5C5F4FD5012D913C9153
:101C5000220F331FF60180819181280F391FD70190
:101C60000D911C91040F151FB90163507109CE012C
:101C70000E94A709DF91CF911F910F91FF90EF90E4
:101C8000DF90CF90BF90AF909F908F900895CF92AC
:101C9000DF92EF92FF920F931F93CF93DF93C4E5F0
:101CA000D7E02EA93FA94CA95DA96A817B818881D3
:101CB00099810E94423683E4E82E88E0F82E99ED5F
:101CC000C92E98E0D92EF6012081318107ED18E068
:101CD000F801408151816A817B81888199810E94CC
:101CE0004236F60120813181F801408151810CE7B3
:101CF00016E0F80162817381808191810E944236F1
:101D0000209191083091920840918F08509190084D
:101D1000F801628D738D808D918D0E944236F7019E
:101D20002681378144815581F80162A973A980A970
:101D300091A90E9442362091090930910A094091E7
:101D40000709509108096AA97BA988A999A90E9445
:101D500042362091F1083091F2084091EF085091FD
:101D6000F0086A8D7B8D888D998DDF91CF911F91C1
:101D70000F91FF90EF90DF90CF900C9442360F932D
:101D80001F93CF93DF938C01EB012097A1F041E0EB
:101D900050E0B80185E50E947E3641E050E0B80190
:101DA00085E40E947E3641E050E0B80184E40E9460
:101DB0007E362197EACFDF91CF911F910F91089541
:101DC000CF93DF93EC0143E050E0BC018CE40E9430
:101DD0007E3643E050E0BE018DE40E947E3641E055
:101DE00050E0BE0182E5DF91CF910C947E364F9298
:101DF0005F926F927F928F929F92AF92BF92CF929B
:101E0000DF92EF92FF920F931F93CF93DF93EC013A
:101E100066EE75E085E99DE00E947F2ECE010E946E
:101E2000E00ECE010E94E00EFE01E05BFF4F00815C
:101E300011812E0188E4480E511C3E01E6E56E0E2C
:101E4000711C7E01FAE4EF0EF11C4E018EE4880E47
:101E5000911C5E01E2E5AE0EB11C6E01FE018681B1
:101E600097812085318582179307D1F422853385A8
:101E700082179307A9F47296E415F50581F7DF91AF
:101E8000CF911F910F91FF90EF90DF90CF90BF9077
:101E9000AF909F908F907F906F905F904F9008953C
:101EA000F3018081918108171907A9F18EA19FA1E3
:101EB0000817190781F16DEE75E085E99DE00E9434
:101EC0007F2E42E050E0BE0185E50E947E368A8189
:101ED0009B81288539858217930771F008171907A8
:101EE00059F041E050E0BE0185E40E947E3641E0B9
:101EF00050E0BE0184E4E9CFF701208131818EAD4D
:101F00009FAD2817390721F4CE010E94980703C01E
:101F1000CE010E946307F40180819181081719079F
:101F2000A9F188AD99AD0817190781F165EF75E042
:101F300085E99DE00E947F2E43E050E0BE0185E5EB
:101F40000E947E368A819B81288539858217930776
:101F500071F00817190759F041E050E0BE0185E41F
:101F60000E947E3641E050E0BE0184E4E9CFF701F3
:101F7000208131818EAD9FAD2817390721F4CE0124
:101F80000E94980703C0CE010E946307F50180817B
:101F9000918108171907A9F18C899D8908171907DC
:101FA00081F16DEF75E085E99DE00E947F2E41E0B3
:101FB00050E0BE0185E50E947E368A819B8128859E
:101FC00039858217930771F00817190759F041E016
:101FD00050E0BE0184E40E947E3641E050E0BE0144
:101FE00085E4E9CFF701208131818EAD9FAD2817BF
:101FF000390721F4CE010E94980703C0CE010E9448
:102000006307F701808191810817190789F18A8197
:102010009B810817190761F165E076E085E99DE08D
:102020000E947F2E8A819B8128853985821793079C
:1020300081F00817190769F041E050E0BE0184E41F
:102040000E947E3641E050E0BE0185E40E947E366B
:10205000E9CFF701208131818EAD9FAD2817390777
:1020600021F4CE010E94980703C0CE010E946307AD
:10207000F301808191810817190709F4AAC0F501BD
:10208000808191810817190709F4A3C0F7018081A5
:1020900091810817190709F49CC0F401808191818E
:1020A0000817190709F495C0FE0160E070E080850B
:1020B00091856330710521F06115710509F059C0F2
:1020C000268137812817390739F12EA13FA18217C0
:1020D000930779F428AD39AD8217930751F42A811B
:1020E0003B818217930729F42C893D898217930736
:1020F00099F0CE010E94BF0E8A819B8108171907B3
:1021000039F041E050E0BE0185E50E947E36F4CF13
:10211000CE010E9498075DC0228533858217930700
:1021200009F450C02EA13FA18217930779F428AD7E
:1021300039AD8217930751F42A813B8182179307A7
:1021400029F42C893D8982179307E1F1CE010E9481
:10215000BF0E8A819B810817190739F041E050E0D2
:10216000BE0185E50E947E36F4CFCE010E94630752
:1021700030C0228533852817390721F12EA13FA1D0
:102180008217930779F428AD39AD8217930751F47C
:102190002A813B818217930729F42C893D89821774
:1021A000930781F0CE010E94BF0E8A819B810817A0
:1021B000190709F4ADCF41E050E0BE0185E50E946A
:1021C0007E36F3CF6F5F7F4F72966430710509F0F2
:1021D0006ECFF301808191810817190709F07FC044
:1021E000F501808191810817190709F078C0F7017E
:1021F000808191810817190709F071C0F40180816D
:1022000091810817190709F06AC0FE0160E070E0CB
:102210006330710519F061157105E1F486819781CC
:10222000208531858217930741F1CE010E94BF0EB0
:102230008A819B8108171907E1F0F701808191815C
:1022400008171907B1F041E050E0BE0185E50E9492
:102250007E36EECF22853385808591852817390714
:10226000B9F1CE010E94BF0E8A819B810817190720
:1022700011F5CE010E94980732C02285338582175E
:10228000930731F1CE010E94BF0E8A819B8108170E
:10229000190769F0F701808191810817190739F052
:1022A00041E050E0BE0185E50E947E36EECFCE01D2
:1022B0000E94630714C0F7018081918108171907F4
:1022C000C1F241E050E0BE0185E50E947E36CCCFF0
:1022D0006F5F7F4F72966430710509F099CFF301FB
:1022E000808191810817190799F4F5018081918106
:1022F0000817190799F4F7018081918108171907C8
:1023000069F4F401808191810817190739F4A5CD8A
:102310008EA19FA10817190709F09FCDF4018081B4
:1023200091810817190731F088AD99AD0817190781
:1023300009F093CDF501808191810817190731F0DB
:102340008C899D890817190709F087CDF7018081CD
:1023500091810817190731F08A819B8108171907A5
:1023600009F07BCD8EA19FA10817190781F088ADD8
:1023700099AD0817190759F08C899D890817190715
:1023800031F08A819B810817190709F066CDF601A3
:10239000868197812085318582179307E9F422850C
:1023A000338582179307C1F4F2E1CF0ED11C4C1490
:1023B0005D0469F752CD2A853B858217930799F40E
:1023C00041E050E0BE0184E40E947E3641E050E0EE
:1023D000BE0185E40E947E368E819F8128853985E5
:1023E0008217930741F38A819B810817190739F0F7
:1023F00041E050E0BE0185E50E947E36F4CF2E819B
:102400003F81888599852817390721F0CE010E94E0
:10241000980723CDCE010E9463071FCD2F923F92D4
:102420004F925F926F927F928F929F92AF92BF92E4
:10243000CF92DF92EF92FF920F931F93CF93DF9390
:1024400000D01F92CDB7DEB79C838B838C01005BDD
:102450001F4FD801AD90BC906BE076E085E99DE020
:102460000E947F2EEB81FC812281338180859185C2
:1024700028173907A9F024893589828D938D28176B
:10248000390771F026A137A184A595A5281739072A
:1024900039F020AD31AD86AD97AD2817390729F455
:1024A000C12CD12CE12CF12C19C041E050E06B8102
:1024B0007C8185E50E947E36D5CF54962D913C9146
:1024C00055975A968D919C915B9728173907A9F0DB
:1024D00061E070E08B819C810E94BF0EAB81BC816A
:1024E00012962D913C91139718968D919C91199766
:1024F0002817390709F0D3C0E0CF96962D913C916B
:1025000097979C968D919C919D972817390701F775
:10251000D8962D913C91D997DE968D919C91DF971D
:1025200028173907A9F6C6C018962D913C9119971E
:10253000D8968D919C91D9972817390709F472C0C4
:10254000BD0185E40E947E3641E050E06B817C81D4
:1025500084E40E947E36BFEFEB1AFB0AE4E0EE163D
:10256000F10461F441E050E06B817C8185E50E94DB
:102570007E36FFEFCF1ADF0AE12CF12C84E0C8167B
:10258000D10409F03FC041E050E06B817C8182E5DD
:102590000E947E3641E050E06B817C8185E50E949F
:1025A0007E3643E050E06B817C8182E50E947E367E
:1025B00041E050E06B817C8185E50E947E3641E000
:1025C00050E06B817C8182E50E947E3641E050E0E4
:1025D0006B817C8185E50E947E3641E050E06B8115
:1025E0007C8185E50E947E3643E050E06B817C81F2
:1025F00082E50E947E3641E050E06B817C8185E57A
:102600000E947E36AB81BC81DE962D913C91DF9796
:1026100012968D919C91139741E050E0281739074D
:1026200009F082CF6B817C8182E50E947E3641E099
:1026300050E06B817C8185E50E947E3643E050E06E
:102640006B817C8182E50E947E3641E050E06B81A7
:102650007C8185E50E947E3641E050E06B817C8183
:1026600082E50E947E3641E050E06B817C8185E509
:102670000E947E3641E050E06B817C8185E50E94BE
:102680007E3643E050E06B817C8182E50E947E369D
:1026900041E050E06B817C8185E50E947E36EB81D4
:1026A000FC8122813381808591852817390709F0C3
:1026B000A9CF0ECF68EC70E080E090E00E94662F1A
:1026C0008B809C809CE4890E911C2B803C80A8E42C
:1026D0002A0E311C4B805C80B4E54B0E511C6B8084
:1026E0007C80E8E56E0E711CAB81BC8114966D9107
:1026F0007C91159718964D915C9119975A962D914A
:102700003C915B976417750749F06217730731F0C6
:10271000F801808191816817790739F5AB81BC8117
:1027200056968D919C9157974817590749F08217F3
:10273000930731F0D801ED91FC918E179F07A9F412
:10274000F401808191814817590791F0821793070E
:1027500079F0B1E0A0E0F801E080F180E816F90638
:1027600009F0B0E08B2F9A2F05C080E090E002C006
:1027700081E090E0AB81BC81CD90DC901197DE963A
:102780000D90BC91A02DCA16DB0649F04C155D05D5
:1027900031F0F801E080F180CE14DF0401F5EB8127
:1027A000FC81C2ACD3AC4C155D0549F0AC15BD0540
:1027B00031F0F801E080F180CE14DF0481F4F10102
:1027C000C080D1804C155D0549F0AC15BD0531F0D8
:1027D000F801E080F180CE14DF0409F40196EB816A
:1027E000FC81E4A0F5A004A4F5A5E02DFA83E9831B
:1027F000AE15BF0549F0EE16FF0631F0F801C080B6
:10280000D180EC14FD0421F5EB81FC81E6A8F7A84A
:10281000E981FA81EE16FF0649F0AE15BF0531F0E9
:10282000F801C080D180EC14FD0491F4F201E08045
:10283000F180E981FA81EE15FF0549F0AE15BF057B
:1028400031F0F801A081B181EA16FB0609F4019686
:10285000EB81FC81A0A5B1A5A217B30759F0E981CE
:10286000FA81AE17BF0731F0F801E080F180AE15B4
:10287000BF0541F5EB81FC81A289B3892A173B078B
:1028800059F0E981FA81AE17BF0731F0F801E08015
:10289000F180AE15BF05B1F4F301A081B181E981EA
:1028A000FA81AE17BF0749F02A173B0731F0F8014C
:1028B000E080F180AE15BF0529F4019684309105C2
:1028C00009F4B5C06417750751F06217730739F042
:1028D000D801ED91FC91E617F70709F060C0EB8194
:1028E000FC81668977896417750751F06217730751
:1028F00039F0D801ED91FC916E177F0709F04FC0B8
:10290000F401608171816417750751F062177307D4
:1029100039F0D8012D913C916217730709F03FC03F
:1029200041E050E06B817C8185E50E947E3641E08C
:1029300050E06B817C8182E50E947E3643E050E06E
:102940006B817C8185E50E947E3643E050E06B819F
:102950007C818CE40E947E3641E050E06B817C817A
:1029600085E50E947E3643E050E06B817C8182E504
:102970000E947E3643E050E06B817C8185E50E94B9
:102980007E3641E050E06B817C818CE40E947E3693
:1029900064E276E085E99DE00E947F2EA5CE892B3A
:1029A00039F061E070E08B819C810E94BF0E9CCE6B
:1029B0006BE176E085E99DE00E947F2E41E050E0EA
:1029C0006B817C8185E50E947E3641E050E06B8121
:1029D0007C8182E50E947E3643E050E06B817C8101
:1029E00085E50E947E3643E050E06B817C818CE47B
:1029F0000E947E3641E050E06B817C8185E50E943B
:102A00007E3643E050E06B817C8182E50E947E3619
:102A100043E050E06B817C8185E50E947E3641E099
:102A200050E06B817C818CE40E947E365DCE68EC48
:102A300070E080E090E00E94662FEB81FC81E85B13
:102A4000FF4F6F018B809C80FCE48F0E911C8B816B
:102A50009C810E943C088430910509F46BC4019765
:102A600009F4DFC18B819C810E946C0860E276E0F2
:102A700085E99DE00E947F2E8B819C810E94CD077D
:102A8000029709F065C0AB81BC81DA962D913C912B
:102A9000DB97D6968D919C91D79741E050E028170F
:102AA000390729F0BD0185E50E947E36ECCF6B81A8
:102AB0007C8182E50E947E3641E050E06B817C8122
:102AC00085E50E947E3643E050E06B817C8182E5A3
:102AD0000E947E3641E050E06B817C8185E50E945A
:102AE0007E3641E050E06B817C8182E50E947E363B
:102AF00043E050E06B817C8185E50E947E3643E0B7
:102B000050E06B817C8182E50E947E3641E050E09E
:102B10006B817C8185E50E947E3641E050E06B81CF
:102B20007C8182E50E947E3642E050E06B817C81B0
:102B300085E50E947E3643E050E06B817C8182E532
:102B40000E947E3668E276E085E99DE00E947F2E55
:102B50008B819C810E94CD07019709F074C08B8105
:102B60009C810E943C08029709F06DC0EB81FC81BA
:102B700084A195A141E050E0A816B90629F0BF0153
:102B800085E50E947E36F2CF6B817C8186E40E94CF
:102B90007E3641E050E06B817C8182E50E947E368A
:102BA00043E050E06B817C8185E50E947E3643E006
:102BB00050E06B817C8182E50E947E3641E050E0EE
:102BC0006B817C8185E50E947E3641E050E06B811F
:102BD0007C8182E50E947E3641E050E06B817C8101
:102BE00085E50E947E3643E050E06B817C8182E582
:102BF0000E947E3641E050E06B817C8185E50E9439
:102C00007E3641E050E06B817C8182E50E947E3619
:102C100043E050E06B817C8185E50E947E3643E095
:102C200050E06B817C8182E50E947E3643E050E07B
:102C30006B817C8186E40E947E3666E376E085E9DE
:102C40009DE00E947F2E8B819C810E94CD07019781
:102C500009F058C08B819C810E943C08892B09F0A7
:102C600051C0AB81BC81DA962D913C91DB97D69611
:102C70008D919C91D79741E050E02817390729F0B2
:102C8000BD0185E50E947E36ECCF6B817C8182E5BB
:102C90000E947E3642E050E06B817C8185E50E9497
:102CA0007E3642E050E06B817C8182E50E947E3678
:102CB00043E050E06B817C8185E50E947E3642E0F6
:102CC00050E06B817C8182E50E947E3643E050E0DB
:102CD0006B817C8185E50E947E3642E050E06B810D
:102CE0007C8182E50E947E3642E050E06B817C81EF
:102CF00085E50E947E3641E050E06B817C8182E573
:102D00000E947E368B819C810E940E088823A1F14F
:102D100043E050E06B817C8182E50E947E3643E097
:102D200050E06B817C8186E40E947E3643E050E077
:102D30006B817C818CE40E947E3641E050E06B81A7
:102D40007C8186E40E947E3641E050E06B817C818C
:102D500082E50E947E3643E050E06B817C8186E410
:102D60000E947E3641E050E06B817C818CE40E94C1
:102D70007E3641E050E03AC08B819C810E94E007A2
:102D8000882309F44EC041E050E06B817C818CE4E3
:102D90000E947E3641E050E06B817C8186E40E9497
:102DA0007E3643E050E06B817C8182E50E947E3676
:102DB00043E050E06B817C8186E40E947E3643E0F4
:102DC00050E06B817C818CE40E947E3641E050E0D3
:102DD0006B817C8186E40E947E3641E050E06B810D
:102DE0007C8182E50E947E3643E050E06B817C81ED
:102DF00086E40F900F900F900F90DF91CF911F916D
:102E00000F91FF90EF90DF90CF90BF90AF909F9089
:102E10008F907F906F905F904F903F902F900C9489
:102E20007E36F801E080F1808B819C810E943C0815
:102E3000019701F5D6018D919C91E816F906E1F014
:102E40008B819C810E943C08049769F041E050E02E
:102E50006B817C8185E50E947E3668E476E085E9B9
:102E60009DE00E947F2E6AE576E085E99DE00E9464
:102E70007F2EE0CF80E001C081E0F60140815181EA
:102E8000E416F50609F080E0AB81BC8114962D9123
:102E90003C911597E216F30609F080E0EB81FC8186
:102EA00022893389E216F30609F080E0AB81BC8108
:102EB00094962D913C919597E216F30661F4882340
:102EC00051F0CD010E946C0866E676E085E99DE050
:102ED0000E947F2E6BC0F80120813181AB81BC81C3
:102EE00056968D919C9157972817390721F481E0C8
:102EF0002417350709F080E0EB81FC8140A551A53E
:102F00002417350709F080E0AB81BC81D6964D913E
:102F10005C91D7972417350709F048C0882309F436
:102F200045C0F40180819181A816B90641F041E0C5
:102F300050E06B817C8185E50E947E36F2CF62E6AF
:102F400076E085E99DE00E947F2E43E050E06B81B2
:102F50007C818CE40E947E3641E050E06B817C8174
:102F600085E50E947E3641E050E06B817C8182E500
:102F70000E947E3643E050E06B817C8185E50E94B3
:102F80007E3641E050E06B817C818CE40E947E368D
:102F900041E050E06B817C8185E50E947E3643E014
:102FA00050E06B817C8182E50E947E368B819C8122
:102FB0000E94CD07029709F065C0AB81BC81DA960B
:102FC0002D913C91DB97D6968D919C91D79741E0BE
:102FD00050E02817390729F0BD0185E50E947E36AB
:102FE000ECCF6B817C8182E50E947E3641E050E02F
:102FF0006B817C8185E50E947E3643E050E06B81E9
:103000007C8182E50E947E3641E050E06B817C81CC
:1030100085E50E947E3641E050E06B817C8182E54F
:103020000E947E3643E050E06B817C8185E50E9402
:103030007E3643E050E06B817C8182E50E947E36E3
:1030400041E050E06B817C8185E50E947E3641E065
:1030500050E06B817C8182E50E947E3642E050E048
:103060006B817C8185E50E947E3643E050E06B8178
:103070007C8182E50E947E3668E276E085E99DE00B
:103080000E947F2E8B819C810E94CD07019709F0C1
:1030900074C08B819C810E943C08029709F06DC02E
:1030A000EB81FC8184A195A141E050E0A816B9060E
:1030B00029F0BF0185E50E947E36F2CF6B817C81CD
:1030C00086E40E947E3641E050E06B817C8182E59F
:1030D0000E947E3643E050E06B817C8185E50E9452
:1030E0007E3643E050E06B817C8182E50E947E3633
:1030F00041E050E06B817C8185E50E947E3641E0B5
:1031000050E06B817C8182E50E947E3641E050E098
:103110006B817C8185E50E947E3643E050E06B81C7
:103120007C8182E50E947E3641E050E06B817C81AB
:1031300085E50E947E3641E050E06B817C8182E52E
:103140000E947E3643E050E06B817C8185E50E94E1
:103150007E3643E050E06B817C8182E50E947E36C2
:1031600043E050E06B817C8186E40E947E3666E31A
:1031700076E085E99DE00E947F2E8B819C810E94F4
:10318000CD07019709F058C08B819C810E943C08B3
:10319000892B09F051C0AB81BC81DA962D913C910D
:1031A000DB97D6968D919C91D79741E050E02817F8
:1031B000390729F0BD0185E50E947E36ECCF6B8191
:1031C0007C8182E50E947E3642E050E06B817C810A
:1031D00085E50E947E3642E050E06B817C8182E58D
:1031E0000E947E3643E050E06B817C8185E50E9441
:1031F0007E3642E050E06B817C8182E50E947E3623
:1032000043E050E06B817C8185E50E947E3642E0A0
:1032100050E06B817C8182E50E947E3642E050E086
:103220006B817C8185E50E947E3641E050E06B81B8
:103230007C8182E50E947E368B819C810E940E08F3
:103240008823C1F143E050E06B817C8182E50E94DC
:103250007E3643E050E06B817C8186E40E947E36BE
:1032600043E050E06B817C818CE40E947E3641E03B
:1032700050E06B817C8186E40E947E3641E050E024
:103280006B817C8182E50E947E3643E050E06B8159
:103290007C8186E40E947E3641E050E06B817C8137
:1032A0008CE40E947E3641E050E06B817C8186E4B4
:1032B0000E947E368B819C810E94E007882309F45E
:1032C000C6CB41E050E06B817C818CE40E947E366D
:1032D00041E050E06B817C8186E40E947E3643E0D1
:1032E00050E06B817C8182E50E947E3643E050E0B5
:1032F0006B817C8186E40E947E3643E050E06B81E6
:103300007C818CE40E947E3641E050E06B817C81C0
:1033100086E40E947E3641E050E06B817C8182E54C
:103320000E947E3643E050E06B817C8186E40E94FF
:103330007E368DCB0F900F900F900F90DF91CF9135
:103340001F910F91FF90EF90DF90CF90BF90AF90C3
:103350009F908F907F906F905F904F903F902F90B5
:103360000895EF92FF920F931F93DC01ED91FC9172
:10337000048CF58DE02D780101E010E019951F9186
:103380000F91FF90EF900895EF92FF920F931F938C
:10339000DC01ED91FC91048CF58DE02D7801890123
:1033A00021E030E019951F910F91FF90EF90089563
:1033B0000895FC016370658B848195812681378136
:1033C000613039F0633029F0918780873387228715
:1033D0000895318720879387828708958B988A98EC
:1033E00020910201277820930201A5982EB1277C15
:1033F0002EB970910201292F3327F901E370FF27BD
:10340000A5E0EE0FFF1FAA95E1F7E72BE09302017D
:103410007EB1F901EC70FF27EE0FFF1FEE0FFF1FCB
:10342000E72BEEB974B3F901E071FF27EE0FFF1F30
:10343000E72BE4BB7EB1F901E072FF27F595E79534
:10344000F595E795E72BEEB970910201207C3327C3
:10345000E3E035952795EA95E1F7272B20930201C4
:103460008998899A20910201277820930201A598D2
:103470002EB1277C2EB9709102019C012370332755
:10348000F5E0220F331FFA95E1F7272B2093020175
:103490007EB19C012C703327220F331F220F331F64
:1034A000272B2EB974B39C0120713327220F331FB1
:1034B000272B24BB7EB19C0120723327359527959D
:1034C00035952795272B2EB9709102019C01207C00
:1034D0003327F3E035952795FA95E1F7272B2093CD
:1034E00002018998899A8A9AFA01A0912A0B7FEFA2
:1034F000760F16160CF0C7C0219130910201377873
:1035000030930201A5983EB1377C3EB9609102012B
:10351000322F3370B0E23B9FA0011124462B409321
:1035200002016EB1322F3C70B4E03B9FA001112428
:10353000462B4EB944B3322F3071330F342B34BB8A
:103540006EB1322F3072432F50E055954795559507
:103550004795462B4EB930910201207C2695269541
:103560002695232B209302018998899A711102C014
:10357000672FBDCFAA23E1F301968A98209102011B
:10358000277820930201A5982EB1277C2EB960914F
:103590000201292F3327A90143705527B5E0440FB5
:1035A000551FBA95E1F7462B409302016EB1A90170
:1035B0004C705527440F551F440F551F462B4EB9CD
:1035C00064B3A90140715527440F551F462B44BBD6
:1035D0006EB1A90140725527559547955595479568
:1035E000462B4EB940910201207C332753E035959C
:1035F00027955A95E1F7242B209302018998899AFF
:1036000020910201277820930201A5982EB1277CF2
:103610002EB9409102019C012370332765E0220FEF
:10362000331F6A95E1F7242B209302014EB19C01D0
:103630002C703327220F331F220F331F242B2EB958
:1036400044B39C0120713327220F331F242B24BB4A
:103650004EB19C01207233273595279535952795D6
:10366000242B2EB9409102019C01207C3327B3E02A
:1036700035952795BA95E1F7242B20930201899877
:10368000899A8A9A75CF8B9A08958B988A98E2E0E6
:10369000F1E0208127782083A5982EB1277C2EB9D0
:1036A000A081292F3327A90143705527B5E0440F86
:1036B000551FBA95E1F74A2B4083AEB1A9014C7072
:1036C0005527440F551F440F551F4A2B4EB9A4B31D
:1036D000A90140715527440F551F4A2B44BBAEB179
:1036E000A9014072552755954795559547954A2B01
:1036F0004EB94081207C332753E0359527955A9564
:10370000E1F7242B20838998899A208127782083C8
:10371000A5982EB1277C2EB940819C0123703327B8
:10372000A5E0220F331FAA95E1F7242B20834EB189
:103730009C012C703327220F331F220F331F242BA1
:103740002EB944B39C0120713327220F331F242B41
:1037500024BB4EB19C0120723327359527953595B2
:103760002795242B2EB92081807C9927B3E095954D
:103770008795BA95E1F7822B80838998899A8A9AEE
:10378000808187788083A5988EB1877C8EB94081AF
:10379000872F99279C012370332755E0220F331F71
:1037A0005A95E1F7242B20834EB19C012C703327CE
:1037B000220F331F220F331F242B2EB944B39C0139
:1037C00020713327220F331F242B24BB4EB19C01C1
:1037D000207233273595279535952795242B2EB9BB
:1037E0002081807C9927A3E095958795AA95E1F79C
:1037F000822B80838998899A808187788083A59895
:103800008EB1877C8EB92081CB0183709927B5E07A
:10381000880F991FBA95E1F7822B80832EB1CB01D7
:103820008C709927880F991F880F991F822B8EB94A
:1038300024B3CB0180719927880F991F822B84BBF9
:103840002EB1CB018072992795958795959587958F
:10385000822B8EB98081607C7727A3E07595679570
:10386000AA95E1F7682B60838998899A8B9A0895C5
:10387000EF92FF920F931F93CF93DF937C01E901A7
:1038800077FD69C157FD67C1FC0180859185681787
:1038900079070CF060C182859385481759070CF0B1
:1038A0005AC18091290B882341F0CE018F7199274D
:1038B000880F991FC17CC82BD92B8A019B01C70196
:1038C0000E94353280912A0B882309F438C18B98E5
:1038D0008A98F70182A593A5209102012778209369
:1038E0000201A5982EB1277C2EB960910201292FE3
:1038F0003327A9014370552775E0440F551F7A956A
:10390000E1F7462B409302016EB1A9014C70552797
:10391000440F551F440F551F462B4EB964B3A901E0
:1039200040715527440F551F462B44BB6EB1A9016A
:10393000407255275595479555954795462B4EB955
:1039400040910201207C3327B3E035952795BA9545
:10395000E1F7242B209302018998899A2091020192
:10396000277820930201A5982EB1277C2EB940918B
:1039700002019C012370332715E0220F331F1A9593
:10398000E1F7242B209302014EB19C012C703327C8
:10399000220F331F220F331F242B2EB944B39C0157
:1039A00020713327220F331F242B24BB4EB19C01DF
:1039B000207233273595279535952795242B2EB9D9
:1039C00020910201807C992773E0959587957A95DF
:1039D000E1F7822B809302018998899A8A9A2C2F89
:1039E000220F220F220F809102018778809302011B
:1039F000A5988EB1877C8EB98091020180930201D7
:103A00003EB1CE018827987F892F9927AC014C7051
:103A10005527440F551F440F551F432B4EB934B340
:103A2000AC0140715527440F551F432B44BB3EB199
:103A3000AC01407255275595479555954795432BB1
:103A40004EB930910201807C992713E095958795B6
:103A50001A95E1F7832B809302018998899A8091C6
:103A60000201877880930201A5988EB1877C8EB978
:103A700080910201809302013EB1C07ED77003E0C5
:103A8000D695C7950A95E1F7CE018C709927880FD6
:103A9000991F880F991F832B8EB934B3CE01807183
:103AA0009927880F991F832B84BB3EB1CE0180726A
:103AB00099279595879595958795832B8EB98091B4
:103AC0000201C07CDD2773E0D595C7957A95E1F7B3
:103AD000C82BC09302018998899A80910201877846
:103AE00080930201A5988EB1877C8EB980910201E6
:103AF000809302019EB1822F8C70880F880F892BD2
:103B00008EB994B3822F8071880F892B84BB3EB10C
:103B1000922F9072892F90E095958795959587952E
:103B2000832B8EB980910201207C269526952695BF
:103B3000282B209302018998899A8B9A0CC0BE0188
:103B4000F70182A593A5DF91CF911F910F91FF906F
:103B5000EF900C94451BDF91CF911F910F91FF9037
:103B6000EF900895DF92EF92FF920F931F93CF9300
:103B7000DF93CDB7DEB72A970FB6F894DEBF0FBE3E
:103B8000CDBF7C01862F8370D70155968C935597B6
:103B9000462F417060FF05C016962D913C911797F6
:103BA00003C0F70124813581D70119963C932E93E8
:103BB0001897442329F014962D913C91159703C032
:103BC000F70126813781D7011B963C932E931A97D4
:103BD000823041F0833041F0813011F088E405C03B
:103BE00088E203C088E901C088EF8A87F701248D45
:103BF000358D30FF03C08A8580588A8731FF04C025
:103C00009A8580E489278A8733FF04C09A8588E0F3
:103C100089278A87D7015E968D919C915F9720FFB7
:103C2000D5C010912A0B8431B8E69B07F9F49A8528
:103C3000892F881F8827881F8295880F880F807C8E
:103C400096FD02C020E001C020E298729A871F8290
:103C50008260822B88878BE38987AE01495F5F4F43
:103C600063E086EB90E00E94EE1989C08336E9E1BB
:103C70009E0741F08138F4E99F0721F0813125E169
:103C8000920709F52A8527FF02C021602A872A8525
:103C900026FF02C022602A87833639E1930719F490
:103CA0008A858F730EC0813844E9940719F48A8598
:103CB0008F7207C08131954109F061C08A858F7E7E
:103CC000806C8A875CC0112309F459C062E070E0FF
:103CD000F70177A366A326E030E031A720A7E2E250
:103CE000F0E0D7019B96FC93EE939A979D967C9378
:103CF0006E939C9764E070E09F967C936E939E9782
:103D0000D1963C932E93D09728E030E0D3963C9305
:103D10002E93D2978536910521F58A85982F91604B
:103D200084FD02C09A8703C083ED89278A874423D4
:103D300051F082E890E0F70197A386A380E890E035
:103D400091A780A732C280E890E0D70197969C9314
:103D50008E93969782E890E099969C938E9398978D
:103D600024C28235924501F58A85982F926084FDA0
:103D700002C09A8719C084ED89278A8715C02AE274
:103D800030E0F70137A326A38BE290E091A780A74C
:103D90004CE250E053A742A735A724A737A726A790
:103DA00091AB80AB93AB82AB1111FFC186E390E086
:103DB000AE01465F5F4F61E00E94EE198A8590E098
:103DC000D70193969C938E939297E6C02A85833968
:103DD000B7E79B0709F448C050F48435F1E09F072A
:103DE00081F0803234E5930709F081C03DC086320E
:103DF00043E99407C9F18930A5EB9A0709F077C028
:103E000033C087E390E0F70195A784A786E390E0AD
:103E100097A786A789E390E091AB80AB88E390E019
:103E200093AB82AB80E290E097A386A381E290E01F
:103E300091A780A782E290E093A782A7822F022E0B
:103E4000000C990B8827990F881F9927982F88278E
:103E5000990F26FD03C060E070E002C060E071E0F1
:103E60008862682B792B82C040E052E0D701979698
:103E70005C934E93969741E052E099965C934E93F3
:103E8000989742E052E09B965C934E939A9740E15C
:103E900052E09D965C934E939C9741E152E09F9631
:103EA0005C934E939E9742E152E0D1965C934E9381
:103EB000D09743E152E0D3965C934E93D29727FD7F
:103EC00003C020E030E002C020E030E88632B3E9F1
:103ED0009B0731F08032944519F060E07AE602C029
:103EE00060E075E3622B732B80E094E035C080E2E4
:103EF00090E0D70197969C938E93969781E290E0FD
:103F000099969C938E93989782E290E09B969C93CF
:103F10008E939A9780E590E09D969C938E939C97C4
:103F200081E590E09F969C938E939E9782E590E02A
:103F3000D1969C938E93D09783E590E0D3969C93F3
:103F40008E93D29727FD03C060E070E002C060E06E
:103F500070E8776280E690E00E94451B8A8586FDC6
:103F600003C060E070E002C060E071E081E090E0DA
:103F70000E94451B8A8585FD03C060E070E002C099
:103F800068E070E083FD70616063F70173A362A372
:103F900083E090E00E94451BD70155968C91559780
:103FA00080FF36C05C968D919C915D9792FD30C0EC
:103FB00096968D919C91979798962D913C91999773
:103FC00097963C932E93969799969C938E93989759
:103FD0009C968D919C919D97D0962D913C91D197D7
:103FE0009D963C932E939C97D1969C938E93D097BD
:103FF0009E968D919C919F97D2962D913C91D397AF
:104000009F963C932E939E97D3969C938E93D29794
:10401000F701028513850150110920853185215052
:10402000310940E050E060E070E0C7010E943532A5
:10403000D70116966D917C9117975E968D919C9104
:104040005F978732B3E99B0741F4F7012589225036
:10405000223018F400E210E002C000E010E08732E5
:10406000F3E99F0729F022273327201B310B04C0D7
:1040700020E230E0201B310BD7015C964C9140FFD1
:1040800045C01982D02E0A837B836C833D832E83A7
:1040900010912A0B111103C083E390E002C08EE05F
:1040A00090E0AE014F5F5F4F66E00E94EE1919820B
:1040B000DA82111103C087E390E002C084E190E04E
:1040C000AE014F5F5F4F62E00E94EE19112389F04D
:1040D0001982F701868D978D8734934819F081E016
:1040E00090E002C088E190E0AE014F5F5F4F61E079
:1040F0000AC0D7015C968C9180FF5AC040E050E026
:1041000060E083E190E00E94EE1952C08339B7E786
:104110009B0779F160F48032F4E59F0751F1833811
:1041200027E7920781F08435914089F510C08632E7
:1041300043E99407F1F08930A5EB9A07D1F0853275
:10414000924929F504C0F70160A171A124C0600F54
:10415000711F6150710981E390E00E94451BB80115
:1041600082E390E00E94451B60E070E083E390E012
:1041700019C0D70190966D917C919197626081E012
:1041800094E00E94451BB80184E094E00BC0F70165
:1041900060A171A1626081E690E00E94451BB801B8
:1041A0008AE690E00E94451B03C086E190E000CEC5
:1041B0002A960FB6F894DEBF0FBECDBFDF91CF9128
:1041C0001F910F91FF90EF90DF9008950895CF9386
:1041D000DF939B01672B31F4682F85E99DE00E94F6
:1041E0005A2A07C0AC0160E070E085E99DE00E94BA
:1041F000292EEC0185E99DE00E94F82D8C0F9D1F72
:10420000DF91CF910895CF92DF92EF92FF92CF93FB
:10421000DF936B017C016DE288ED9DE00E945A2BDB
:10422000EC0144275527BA014C195D096E097F0935
:104230002AE088ED9DE00E94292E8C0F9D1FDF91C2
:10424000CF91FF90EF90DF90CF900895CF93DF93C1
:10425000AC01990F660B770B77FF05C0CB01BA0154
:104260000E94032105C02AE088ED9DE00E94292ECE
:10427000EC0188ED9DE00E94F82D8C0F9D1FDF91D1
:10428000CF9108958F929F92AF92BF92EF92FF923B
:104290000F931F93CF93DF93EC011B8619861E8229
:1042A0001D821C868AE08C838FEF8093200B809385
:1042B0001F0B80931E0B0E948C2F7B0161E08C8171
:1042C0000E942A2FCE010E94B03F60E08CE00E9445
:1042D0002A2F61E08BE00E942A2F61E08DE00E948E
:1042E0002A2F1AE08FEF0E94B53F1150D9F760E0F6
:1042F0008C810E94B02E20E030E0A90160E0CE0168
:104300000E940C40082F8A87813049F00E948C2F30
:104310006E197F09613D774070F381E04AC02AEA57
:1043200031E040E050E068E0CE010E940C4082FFA6
:1043300002C00B870CC004E00E94C83F8A8701506E
:10434000D9F78A3A11F082E034C082E08B878B85FE
:10435000823021F0812C912C540105C0812C912CAC
:10436000A12C80E4B82E20E030E0A90167E3CE0163
:104370000E940C40A501940169E2CE010E940C400C
:104380008A87882349F00E948C2F6E197F09613D2E
:10439000774048F388E00DC08B858230E1F420E05F
:1043A00030E0A9016AE3CE010E940C40882331F07D
:1043B00086E08D83CE010E94B03F11C00E94C83FAD
:1043C000807C803C11F483E08B870E94C83F0E9470
:1043D000C83F0E94C83FCE010E94B03F11E0812F2C
:1043E000DF91CF911F910F91FF90EF90BF90AF9011
:1043F0009F908F9008958F929F92AF92BF92CF928D
:10440000DF92EF92FF92CF93DF93C82F8BE29BE076
:1044100090931C0B80931B0BCC2369F1C53010F0DB
:1044200080E00CC140E060E070E0CB010E942F41D1
:104430008823B1F320E1C29FC0011124855F964F0C
:10444000FC01E254FE4F20812F7751F73C964081CA
:10445000518162817381443651056105710500F314
:104460003497C080D180E280F380C114D104E1048C
:10447000F10421F4D5CFC12CD12C760140E0C70145
:10448000B6010E942F41882359F28091260990910C
:1044900027098115924021F6A0912B09AA2309F43E
:1044A000BFCF6091290970912A096115710509F43E
:1044B000B7CF20912809222309F4B2CFA0934A0B49
:1044C00020933C0B80E030E041E050E0C82FFA013F
:1044D000082E02C0EE0FFF1F0A94E2F72E173F07C7
:1044E00039F08F5FC83091F789E08093450B98CF02
:1044F0008093450B20913109309132092115310506
:1045000019F040E050E008C020913F093091400987
:10451000409141095091420920933D0B30933E0B4D
:1045200040933F0B5093400B46015701860E971E58
:10453000A11CB11C80924B0B90924C0BA0924D0B86
:10454000B0924E0BE0912C09F0912D09F093510B94
:10455000E093500BB0E00E946B5B860E971EA81E86
:10456000B91E8092520B9092530BA092540BB092B2
:10457000550B85E0EE0FFF1F8A95E1F7E150FE4FE6
:10458000EF2FFF27E6958E0E9F1EA11CB11C809277
:10459000460B9092470BA092480BB092490B20918A
:1045A0002E0930912F092115310521F0A90160E074
:1045B00070E008C040913B0950913C0960913D0971
:1045C00070913E09D701C60188199909AA09BB094A
:1045D000840F951FA61FB71F04C0B695A795979582
:1045E0008795CA95D2F78093410B9093420BA09385
:1045F000430BB093440B853F2FE09207A105B10513
:1046000010F48CE018C0853F9F4FA105B10510F450
:1046100080E111C08091470990914809A091490912
:10462000B0914A098093520B9093530BA093540B73
:10463000B093550B80E280934F0B81E0DF91CF91D7
:10464000FF90EF90DF90CF90BF90AF909F908F90B2
:10465000089581E080931D0BE1E0F1E0808188679F
:1046600080839D9A8DB188638DB9809A819A829A50
:10467000839A849A8B9A889A899A8C9A62E370E0DA
:1046800080E090E00E94662F8C9864E670E080E005
:1046900090E00E94662F8C9A64E670E080E090E0E3
:1046A0000E94662F60E070E080EB90E00C94451B68
:1046B0000F931F93CF93DF93EC01162F80911D0B67
:1046C000811102C00E9429238B988A98809102014F
:1046D000877880930201A5988EB1877C8EB940912E
:1046E00002018D2F99279C012370332755E0220F5B
:1046F000331F5A95E1F7242B209302014EB19C0100
:104700002C703327220F331F220F331F242B2EB977
:1047100044B39C0120713327220F331F242B24BB69
:104720004EB19C01207233273595279535952795F5
:10473000242B2EB920910201807C9927F3E09595D6
:104740008795FA95E1F7822B809302018998899ADF
:1047500080910201877880930201A5988EB1877CB1
:104760008EB920910201CE0183709927A5E0880FB0
:10477000991FAA95E1F7822B809302012EB1CE01F9
:104780008C709927880F991F880F991F822B8EB9DB
:1047900024B3CE0180719927880F991F822B84BB87
:1047A0002EB1CE018072992795958795959587951D
:1047B000822B8EB980910201C07CDD2743E0D59524
:1047C000C7954A95E1F7C82BC09302018998899A49
:1047D0008A9A809101018778809301019D988DB11B
:1047E000877C8DB961E070E080E090E00E94662FE8
:1047F000889A889888988898609100018CB1A2B3B3
:104800004CB100910001889A889A88988898889875
:10481000E0910001FCB132B32CB1C0910001889A43
:10482000115017FFE5CF889A8B9A909101019867F4
:10483000909301019D9A9DB198639DB9487050E095
:10484000440F551F440F551F087198E0099F8001C0
:104850001124402B512BA072B0E0B595A7954A2B9F
:104860005B2B807390E09595879595958795482B60
:10487000592B607670E0B5E075956795BA95E1F7CC
:10488000462B572B542F44272870220F220F8C2F92
:10489000887198E0899FE00111249C2F922B30723F
:1048A000232F30E035952795292B9F2F90739695D0
:1048B0009695922B2E2F2076229526952770292BC0
:1048C000CA01822BDF91CF911F910F910895FF9222
:1048D0000F931F93CF93DF93EC0160E00E94582366
:1048E0008C0161E0CE010E945823F82E62E0CE01D7
:1048F0000E94582320E030E0302F22271127002784
:1049000040E050E05F2D60E070E0042B152B262B7B
:10491000372B492F50E060E070E0CB01BA01602BEB
:10492000712B822B932BDF91CF911F910F91FF90D1
:1049300008950F931F93CF93DF938C0160E00E9443
:104940005823EC0161E0C8010E945823AC01CE015C
:10495000A0E0B0E0DC019927882760E070E08C01DE
:104960009D01042B152B262B372BC901B801DF9194
:10497000CF911F910F9108952F923F924F925F9286
:104980006F927F928F929F92AF92BF92CF92DF925F
:10499000EF92FF920F931F93CF93DF93CDB7DEB7C4
:1049A0006B970FB6F894DEBF0FBECDBF9B8F8A8F7B
:1049B0005B011A01D22E1F830E833701C982DC01ED
:1049C00058962D913C9159972115310509F0E6C073
:1049D00018968D919C911997681779070CF0CDC1A5
:1049E0001A968D919C911B97481759070CF0C5C1D9
:1049F0008C2C912CFB0126E0C29EE00DF11D1124B0
:104A0000FB87EA871E161F060CF0B7C1A40183E0DE
:104A1000440F551F8A95E1F75D874C87CA01820DC7
:104A2000931D181619060CF0A8C157968C91811188
:104A300004C05FEA5D1508F4D394AA8DBB8DED9197
:104A4000FC9111970680F781E02DCD011995B5E015
:104A5000DB9EC0011124F5013596FF87EE87BB82EE
:104A6000AA8225019C012A193B09398B288BA101B7
:104A7000485F5F4F5B8B4A8BE889F989E40DF51D30
:104A8000E85AF74F5491588761013D822C828885FE
:104A900080FF13C0AA8DBB8DED91FC91B981B1301F
:104AA00031F40084F185E02D2E813F8116C002840F
:104AB000F385E02DEE80FF801AC0EE81FF81E615C0
:104AC000F705F1F0AA8DBB8DED91FC91B981B13064
:104AD00051F40084F185E02D9301A601B2018A8D85
:104AE0009B8D19950DC00284F385E02D730184011F
:104AF00094014C815D816A817B818A8D9B8D1995A2
:104B0000E885E695E887FFEFCF1ADF0A2C813D8123
:104B1000280D391D3D832C834A895B89C416D5062F
:104B200009F0B5CF5FEF451A550A8A819B81880D40
:104B3000991D9B838A83AE85BF854A165B0609F063
:104B40009BCFEE81FF81E615F70509F4F4C0EA8DED
:104B5000FB8DA081B181F981F13079F4B5016B5FF2
:104B60007F4F1C96ED91FC911D97830128E030E06A
:104B7000A1018A8D9B8D1995DEC06A857B85681998
:104B800079091A96ED91FC911B9773010C851D858F
:104B90009401A1018A8D9B8D1995CDC0F9013496A0
:104BA000E491DE1AF901329685919491B7E0DB9E8B
:104BB000800D911D1124F901259134913B8B2A8B95
:104BC000FC01259134912901FC013296C490319663
:104BD00034913E87329614913196D4904981423077
:104BE00058F0612E012E000C77088D2D0D2C000C35
:104BF000990B9987888704C019861886612C712CB7
:104C0000AA8DBB8DED91FC9111970680F781E02D67
:104C1000CD011995B9818B2E912C689CC001699C9E
:104C2000900D789C900D1124FC01EA0DFB1DFD8771
:104C3000EC871A82712C612CE12F110FFF0B95016B
:104C40002E0F3F1F3B872A87AC0CB11CA5014E0FCE
:104C50005F1F5F8B4E8BC1018D0D911DD7FC9A9507
:104C6000998F888F9E85691608F065C0862D90E023
:104C700048855985480F591F489D9001499D300D21
:104C8000589D300D1124D101A20FB31FB98BA88BF1
:104C9000EC85FD85FD83EC83AA84BB84DA80FA85EC
:104CA000DF1A288D398D280F391F3D8B2C8B8D2DC8
:104CB0008A0D4E895F89A416B506C1F1877041F44B
:104CC000C2010196EA89FB89E40DF51D74902C015F
:104CD00077FE21C0AA8DBB8DED91FC91B981B130D9
:104CE00061F40084F185E02D2E813F814C895D893E
:104CF000B5018A8D9B8D19950EC00284F385E02D38
:104D0000EE80FF8084019401488959896C817D81FE
:104D10008A8D9B8D1995770CEFEFAE1ABE0A2C8108
:104D20003D81280D391D3D832C83C1CF3A813C0D37
:104D30003A83639497CFAA8DBB8DED91FC91119727
:104D40000288F389E02DCD016B960FB6F894DEBF93
:104D50000FBECDBFDF91CF911F910F91FF90EF90CC
:104D6000DF90CF90BF90AF909F908F907F906F908B
:104D70005F904F903F902F9019946B960FB6F894D8
:104D8000DEBF0FBECDBFDF91CF911F910F91FF907E
:104D9000EF90DF90CF90BF90AF909F908F907F90DB
:104DA0006F905F904F903F902F9008953F924F9259
:104DB0005F926F927F928F929F92AF92BF92CF92AB
:104DC000DF92EF92FF920F931F93CF93DF93CDB7B4
:104DD000DEB72C970FB6F894DEBF0FBECDBF5C01D7
:104DE000DC015B968D909C905C971696CD90DD9043
:104DF000ED90FC901997C114D104E104F10439F04D
:104E0000BFEFCB1ADB0AEB0AFB0A312C07C0F40117
:104E1000C080D180E280F38033243394F401818513
:104E20009285A385B4859C01AD012F5F3F4F4F4F05
:104E30005F4F29873A874B875C87260137011D82A0
:104E40001E821F821886F40181859285A385B48510
:104E50002D813E814F815885281739074A075B0706
:104E600008F063C089859A85AB85BC858C159D0546
:104E7000AE05BF0550F482E0C82ED12CE12CF12CF8
:104E800092E0492E512C612C712C9E012F5F3F4FD7
:104E9000B701A601C4010E947742882309F445C0E6
:104EA00089819A81AB81BC81892B8A2B8B2B41F024
:104EB000260137019FEF491A590A690A790A05C084
:104EC000C414D504E604F70491F02D813E814F818E
:104ED00058852F5F3F4F4F4F5F4F2D833E834F834A
:104EE00058873FEFC31AD30AE30AF30AACCF0FEF98
:104EF0001FEF2FEF3FE0B301A201C4010E94D64192
:104F0000882399F0D50116964D915D916D917C9114
:104F10001997411551056105710549F09301820109
:104F2000C4010E94D641811102C080E02AC0D5018F
:104F300016964D925D926D927C921997332051F0A6
:104F4000D301C2010196A11DB11DF401808391839B
:104F5000A283B383F5018789908DA18DB28D892BB2
:104F60008A2B8B2B69F4D50157964D925D926D92E9
:104F70007C925A9714968C911497806814968C930F
:104F800081E02C960FB6F894DEBF0FBECDBFDF9147
:104F9000CF911F910F91FF90EF90DF90CF90BF9036
:104FA000AF909F908F907F906F905F904F903F90C9
:104FB00008956F927F928F929F92AF92BF92CF92FD
:104FC000DF92EF92FF920F931F93CF93DF93EC0149
:104FD0004B015A0169013801E881F9810680F781A6
:104FE000E02D1995E881F9810684F785E02D870188
:104FF0009601A501B401CE011995A501460D571DD5
:1050000041505109E881F9810684F785E02D960128
:10501000B401CE011995E881F9810484F585E02D6C
:105020009301A501B401CE011995C80CD91CB60194
:1050300061507109E881F9810484F585E02D9301BF
:10504000A501CE011995E881F9810288F389E02D47
:10505000CE01DF91CF911F910F91FF90EF90DF90E4
:10506000CF90BF90AF909F908F907F906F9019944A
:105070008F929F92AF92BF92CF92DF92EF92FF9268
:105080000F931F93CF93DF934C016B015A01E901FA
:10509000DC01ED91FC916217730781F40417150789
:1050A00024F48B2D5801042F182F0A191B0998017D
:1050B0002F5F3F4F008CF18DE02D12C0401751073C
:1050C00009F52617370724F48D2D6901C62FD82F2F
:1050D0009E012C193D092F5F3F4F028CF38DE02D6F
:1050E0008701A501B601C4011995DF91CF911F91E8
:1050F0000F91FF90EF90DF90CF90BF90AF909F9077
:105100008F9008950680F781E02D1995D401ED91D7
:10511000FC910088F189E02D9E01A501B601C40132
:105120001995D401ED91FC910288F389E02DC40119
:10513000DF91CF911F910F91FF90EF90DF90CF9073
:10514000BF90AF909F908F901994EF92FF920F9322
:105150001F93DC011A960D911C911B9718962D91A7
:105160003C911997ED91FC91048CF58DE02D7B011C
:1051700040E050E060E070E019951F910F91FF90C2
:10518000EF9008954F925F926F927F928F929F92CD
:10519000AF92BF92CF92DF92EF92FF920F931F9345
:1051A000CF93DF936C012B015A0139014801DC01D7
:1051B000ED91FC910680F781E02D1995E201640CD8
:1051C000751CD601ED91FC91C615D7055CF40484DD
:1051D000F585E02D87019401A501BE01C601199551
:1051E0002196EFCF0288F389E02DC601DF91CF91A0
:1051F0001F910F91FF90EF90DF90CF90BF90AF90F5
:105200009F908F907F906F905F904F9019948F92A6
:105210009F92AF92BF92CF92DF92EF92FF920F9345
:105220001F93CF93DF93EC015B014A016901E88191
:10523000F9810680F781E02D199595012C0D3D1D12
:1052400021503109E881F9810088F189E02D780148
:105250008401A401B501CE011995E881F981028884
:10526000F389E02DCE01DF91CF911F910F91FF9037
:10527000EF90DF90CF90BF90AF909F908F90199458
:105280008F929F92AF92BF92CF92DF92EF92FF9256
:105290000F931F93CF93DF93EC015B014A016901E8
:1052A0007801E881F9810680F781E02D1995C80C15
:1052B000D91C860101501109E881F9810088F18922
:1052C000E02D9501A401B501CE011995E881F98180
:1052D0000288F389E02DCE01DF91CF911F910F91CC
:1052E000FF90EF90DF90CF90BF90AF909F908F9006
:1052F00019940895EF92FF920F931F93DC01ED91A3
:10530000FC91048CF58DE02D19951F910F91FF9064
:10531000EF9008950F931F93DC01ED91FC91028CA7
:10532000F38DE02D19951F910F9108950F931F9301
:10533000DC01ED91FC91008CF18DE02D19951F9110
:105340000F910895DC01ED91FC910480F581E02D31
:1053500019942F923F924F925F926F927F928F9209
:105360009F92AF92BF92CF92DF92EF92FF920F93F4
:105370001F93CF93DF9300D000D0CDB7DEB72C01C1
:105380007E836D836A015901C801FC82EB8248016A
:10539000841A950A97FE03C091948194910835016F
:1053A0002D813E81621A730A77FE03C07194619465
:1053B0007108681479045CF43A2D2B2D5C01832F5D
:1053C000922F3D812E81DE82CD82C32ED22EAD81E1
:1053D000BE81AA16BB065CF43C2D2D2D6C01832FDB
:1053E000922F3D812E81BE82AD82A32EB22E8501E9
:1053F0002D813E81021B130B1C012C183D0837FE2A
:1054000003C0319421943108780117FF03C03FEFA6
:10541000E31AF30AF594E794C816D9062CF08FEF37
:105420009FEF9A83898304C0A1E0B0E0BA83A98387
:105430002D813E81A216B30624F1D201ED91FC919B
:105440000084F185E02D2B813C816814790424F4DB
:105450004D815E81B60103C0A6016D817E81C201CE
:105460001995E218F308F7FE06C029813A81C20EA9
:10547000D31EE00EF11E8D819E8101969E838D8349
:10548000D7CF26960FB6F894DEBF0FBECDBFDF9103
:10549000CF911F910F91FF90EF90DF90CF90BF9031
:1054A000AF909F908F907F906F905F904F903F90C4
:1054B0002F9008950F931F93CF93DF93FC01A68540
:1054C000B7858D01005C1F4FE801888199810196A5
:1054D0008F739927AD014E5B5F4FEA0128813981B7
:1054E00028173907D1F3E80128813981A20FB31FAA
:1054F0006C93A685B785A05CBF4F11969C938E9345
:10550000A689B7892C9181E090E0078C02C0880FB2
:10551000991F0A94E2F7822B8C9381E081A304887F
:10552000F589E02D80818064808381E090E0DF91C7
:10553000CF911F910F910895FC0181A1882329F03B
:10554000A489B5898C9186FFFBCF11A20895FC0137
:10555000A485B585FD01E05CFF4F20813181329645
:10556000808191812817390779F080819181A80F76
:10557000B91F8C91208131812F5F3F4F2F733327CB
:105580003183208390E008958FEF9FEF0895DC0131
:105590001C96ED91FC911D97DF01A05CBF4F2D91F2
:1055A0003C91119712968D919C911197281739076C
:1055B00039F08D919C91E80FF91F808190E008955A
:1055C0008FEF9FEF0895FC0124853585F901E05C9C
:1055D000FF4F80819181329620813181821B930B14
:1055E0008F7399270895FB01E05CFF4F2081318183
:1055F000DB01AE5BBF4F4D915C912F5F3F4F2F732F
:1056000033274217530741F040815181DB01A40F3A
:10561000B51F8C93318320830895CF92DF92EF9250
:10562000FF920F931F93CF93DF936C01EB017B01EC
:10563000E40EF51E00E010E0CE15DF0561F0699183
:10564000D601ED91FC910190F081E02DC6011995F4
:10565000080F191FF1CFC801DF91CF911F910F9152
:10566000FF90EF90DF90CF9008953FB7F89480912E
:10567000250B9091260BA091270BB091280B26B5F6
:10568000A89B05C02F3F19F00196A11DB11D3FBF7A
:10569000BA2FA92F982F8827820F911DA11DB11D08
:1056A000BC01CD0142E0660F771F881F991F4A9504
:1056B000D1F70895AF92BF92CF92EF92FF920F93DE
:1056C0001F93CF93DF93EC01262F888D998D009740
:1056D00009F040C06A3059F41D861C862C898E85DD
:1056E0009F8538E0239F800D911D112441C06D30AE
:1056F00009F4AAC08E898823C1F03C898C859D85D8
:1057000046E0349F800D911D112448855985481726
:1057100059075CF41D861C868E859F8548E0349F62
:10572000800D911D11249F878E87EA88FB88088948
:1057300019894E855F856C857D85CC88CE010E9458
:10574000BC242C898C859D8536E0239F800D911D7E
:10575000112442C06A3079F41D861C862C89FC0114
:105760003696E4918E859F852E9F800D911D112484
:105770009F878E8769C06D3009F466C0FC0134963E
:105780003491631708F460C03196E491E61708F489
:105790005BC0FC01329665917491422F50E0431B2F
:1057A000510937E0349F5001359FB00C1124A60EEB
:1057B000B71EF501329634913196E491332311F0FE
:1057C000E1110DC0F5013496E4912C898C859D85FD
:1057D000E29F800D911D11249D878C8735C0F501B6
:1057E000359644915E89552311F16C89E32FF0E0E1
:1057F000E40FF11D47FDFA956E9FD0016F9FB00D2C
:1058000011244C855D854A0F5B1FE885F985E417F7
:10581000F5076CF41D861C86FC013696E4918E8596
:105820009F856E9F800D911D11249F878E87EA882A
:10583000FB88088919894E855F856C857D85CC88B4
:10584000CE010E94BC24BECF81E090E0DF91CF91D9
:105850001F910F91FF90EF90CF90BF90AF90089560
:105860001F920F920FB60F9211240BB60F922F9327
:105870003F938F939F93EF93FF932091B50B3091BC
:10588000B60B8091B70B9091B80B2817390731F4FC
:10589000809131018F7D8093310114C0E091B70B6D
:1058A000F091B80BEB58F44F20818091B70B909199
:1058B000B80B01968F7399279093B80B8093B70B11
:1058C00020933601FF91EF919F918F913F912F91FE
:1058D0000F900BBE0F900FBE0F901F9018951F9248
:1058E0000F920FB60F9211240BB60F922F933F9386
:1058F0008F939F93EF93FF9320913D0C30913E0C3B
:1059000080913F0C9091400C2817390731F4809119
:10591000D1008F7D8093D10014C0E0913F0CF091B5
:10592000400CE350F44F208180913F0C9091400C4B
:1059300001968F7399279093400C80933F0C20938E
:10594000D600FF91EF919F918F913F912F910F90F2
:105950000BBE0F900FBE0F901F9018951F920F92C5
:105960000FB60F9211240BB60F922F933F938F9384
:105970009F93EF93FF932091C50C3091C60C8091BB
:10598000C70C9091C80C2817390731F48091C900D1
:105990008F7D8093C90014C0E091C70CF091C80CB2
:1059A000EB57F34F20818091C70C9091C80C019662
:1059B0008F7399279093C80C8093C70C2093CE00C7
:1059C000FF91EF919F918F913F912F910F900BBE7F
:1059D0000F900FBE0F901F9018951F920F920FB649
:1059E0000F9211240BB60F922F933F938F939F9397
:1059F000EF93FF9320914D0D30914E0D80914F0DFF
:105A00009091500D2817390731F48091C1008F7D96
:105A10008093C10014C0E0914F0DF091500DE35FF1
:105A2000F24F208180914F0D9091500D01968F7310
:105A300099279093500D80934F0D2093C600FF91AE
:105A4000EF919F918F913F912F910F900BBE0F90EF
:105A50000FBE0F901F9018951F920F920FB60F92C6
:105A600011240BB60F922F933F934F935F936F9335
:105A70007F938F939F93AF93BF93EF93FF93809107
:105A8000300182FD07C08091360169EB7BE00E9406
:105A9000F32A02C080913601FF91EF91BF91AF913F
:105AA0009F918F917F916F915F914F913F912F9136
:105AB0000F900BBE0F900FBE0F901F9018951F9266
:105AC0000F920FB60F9211240BB60F922F933F93A4
:105AD0004F935F936F937F938F939F93AF93BF93F6
